:03000000020C03EC
:0C0C0300787FE4F6D8FD758147020C4AAA
:090F3800040800000000010C2374
:100B3400D2B4D2B5C2B4D2B6C2B5D2B5D2B6C2B5A9
:100B4400D2B5C2B6C2B5D2B5D2B6E4FFEFC39408EB
:100B5400748094805013C2B530B603432201D2B5D9
:100B6400E52225E0F5220F80E3AC22E41203378F5F
:100B74000B8E0A8D098C08E4FFFE7DA07C40AB0B34
:100B8400AA0AA909A80812010EE4FBFA797F78439E
:100B94001202178F0B8E0A8D098C08E4FFFEFD7C70
:100BA4003FAB0BAA0AA909A8081202B4500AE4F53B
:100BB4000BF50AF50975083FE4FFFE7D607C40AB48
:100BC4000BAA0AA909A8081202B4600D400BE4F5A7
:100BD4000BF50A750960750840E4FFFEFD7CBFABA8
:100BE4000BAA0AA909A80812001DE4FBFA79C07827
:0F0BF400401202178F0B8E0A8D098C08D2B42283
:100F2800EB24FF9282ED24FF9281EF24FF9280222E
:03000300020D9259
:100D9200C0E0C0F0C083C082C0D075D000C000C027
:100DA20001C002C003C004C005C006C0077F027EA6
:100DB20000120EED20B202050CD007D006D005D0ED
:100DC20004D003D002D001D000D0D0D082D083D0C2
:040DD200F0D0E0324B
:03001300020DD605
:100DD600C0E0C0F0C083C082C0D075D000C000C0E3
:100DE60001C002C003C004C005C006C0077F027E62
:100DF60000120EED20B302150CD007D006D005D098
:100E060004D003D002D001D000D0D0D082D083D07D
:040E1600F0D0E03206
:100A6200C283C2B7120D487B017D017F01120F289C
:100A7200D2AFD2A8D288D2AAD28A7F0A7E00120E20
:100A8200ED120B34850B26850A258509248508235A
:100A9200AF0C120C8FE4FFFE7DC87C42AB0BAA0A9E
:100AA200A909A80812010EC004C005C006C007ACFF
:100AB2000CE4120337A804A905AA06AB07D007D095
:100AC20006D005D0041202B46002500F7B017D01F2
:100AD200E4FF120F28D283D2B7809FE4FFFE7D4845
:100AE2007C43AB0BAA0AA909A80812010EC004C0D4
:100AF20005C006C007AC0CE4120337A804A905AA76
:100B020006AB07D007D006D005D0041202B46002AB
:100B120050107B01E4FD7F01120F28C283C2B7028D
:100B22000A7CE4FB7D017F01120F28C283C2B70257
:020B32000A7C3B
:100EED00EF1FAC0670011E4C600A7D0F7C5ADCFEB4
:050EFD00DDFC80EC2289
:100CF3007365743A006D672F6D006375723A002552
:100D0300302E3366000E020E020E000000000000BB
:100D130000000000000000000000000000000000D0
:100D230000000000000000000000000000000000C0
:100D330000000000000000000000000000000000B0
:050D43000000000000AB
:100F02008FA0C286C2857F0A7E00120EEDD28400B7
:030F1200C2842274
:100F15008FA0D286C2857F0A7E00120EEDD2840094
:030F2500C2842261
:0C0006007F01120F027F147E00020EED3D
:100E54008F2C8B2D8A2E892FED7006E52C24808013
:100E640004E52C24C0FF120F02AB2DAA2EA92F12C9
:100E74000557FF6010120F157401252FF52FE43567
:060E84002EF52E80E42291
:100ED3008F228B23ED7006E52224808004E52224F3
:0A0EE300C0FF120F02AF23020F152B
:100EB1007F40120F02E4F522C3E522940874809466
:100EC10080500EE522900D0893FF120F1505228028
:020ED100E72216
:100E1A007F01120F027F147E00120EED7F38120F2F
:100E2A00027F147E00120EED7F0C120F027F147ED9
:100E3A0000120EED7F06120F027F147E00120EEDD5
:0A0E4A00120EB17F147E00020EEDBF
:100D4800120E1A1200067BFF7A0C79F3E4FDFF12EB
:100D58000E547BFF7A0C79F8E4FD7F0B120E54E4F5
:100D6800FBFD7F0F120ED37BFF7A0C79FD7D01E42A
:100D7800FF120E547BFF7A0C79F87D017F0B120E5F
:0A0D880054E4FB7D017F0F020ED33F
:100C8F008F22752FFF75300D75310285263585251D
:100C9F00348524338523327B007A00792712064F5F
:100CAF007B007A0079277D017F05120E54AC22E478
:100CBF00120337752FFF75300D753102E4FBFA798A
:100CCF00C878421202178F358E348D338C327B00E9
:100CDF007A00792712064F7B007A007927E4FD7F8F
:040CEF0005020E5498
:100016000203A0E86480F8E933E83360110460F075
:10002600ED33EC337009E8FCE9FDEAFEEBFF220450
:1000360060DED3EB9FEA9EE99DE8C2E78CF0C2F74B
:1000460095F0400CE8CCF8E9CDF9EACEFAEBCFFB17
:1000560012036B85D0F05804700320D5B3E8047002
:10006600075002B2D50203AA92D5EC0460F7E4CC9D
:10007600C0E0C398F8603B94186008400DD0E0FBE0
:10008600020382E4FBFAC9FC8028E830E406E4C9EE
:10009600FBE4CAFCE830E305E4C9CACBFCE8540734
:1000A6006010F8C3E913F9EA13FAEB13FBEC13FC3F
:1000B600D8F130F52FC3E49CFCEF9BFFEE9AFEEDE2
:1000C60099FDD0E0FBEF4E4D4C701222DB0302038C
:1000D600A7EC2CFCEF33FFEE33FEED33FDED30E7FE
:1000E600EB020382EF2BFFEE3AFEED39FDD0E0FB8B
:1000F60050130BBB00030203AAED13FDEE13FEEF34
:0801060013FFEC13FC0203825D
:10010E00EC4D6011E8497017ED33EC3304600DE4EB
:10011E00FCFFFEFD22E933E8330470F80203A0125F
:10012E00036B58046009E4CC248150062850090260
:10013E0003AA2840030203A7C0E0EB4A7044B9802B
:10014E0006D0E0FB020396EF4E701CBD8008EBFF5D
:10015E00EAFEE9FD80EBE98DF0A4FEE5F00201F781
:10016E00E9CDF9EAFEEBFFEF89F0A4FCE5F0CE89CC
:10017E00F0A42EFFE435F0CD89F0A42DFEE435F089
:10018E008067EF4E7005BD80D780C3EF8BF0A4ACB7
:10019E00F0EE8BF0A42CFCE435F0F8EF8AF0A42CF2
:1001AE00E5F038FCE433CB8DF0A42CFCE5F03BF805
:1001BE00EE8AF0A42CFCE5F038F8E433CF89F0A4F5
:1001CE002CFCE5F038CF3400CE89F0A42FFFE5F0FB
:1001DE003EFEE433C98DF0A42EFEE5F039CD8AF053
:1001EE00A42FFFE5F03EFEE43DFD33D0E0FB5007CB
:1001FE000BBB000F0203AAEC2CFCEF33FFEE33FE19
:06020E00ED33FD02038246
:100214000203AAEC5D046005E8590470030203A01C
:1002240012036B580460F6EC4860F2EC7004FDFEB7
:10023400FF22C860DB2481C85009C39860025006BD
:100244000203A79850CAF582E9294B4A7005AB828C
:1002540002039675F0007C1A7880C3EF9BEE9AED4A
:1002640099400DC3EF9BFFEE9AFEED99FDE842F035
:10027400DC23ACF0D0E0FFD0E0FED0E0FDAB822088
:10028400E7101BEB60BAEC2CFCEF33FFEE33FEED12
:1002940033FD020382E803F830E705C0F075F0008F
:1002A400EF2FFFEE33FEED33FD40B830E7C280AAF6
:1002B40074F8CC6480CCC86480C8F58204604FC3F1
:1002C400EB9FF5F0EA9E42F0E99D42F0E89C45F090
:1002D400603C501DE5825FFFE582D313CB5BCBF41A
:1002E4002B5582FB50280ABA002409B90020088043
:1002F4001DE5825BFBE582D313CF5FCFF4C3132FDD
:100304005582FF50090EBE00050DBD00010CC3EB64
:100314009FF5F0EA9E42F0E99D42F0E89C45F060CA
:0903240007CC4820E701B3EC22EC
:10032D0075F020800E75F010800575F0087D007E4B
:10033D00007F003392D530D5031205AFEC3340105A
:10034D00EF33FFEE33FEED33FDEC33FCD5F0ED2254
:0E035D00E5F0247EA2D513CC92E7CDCEFF2290
:1005F300E543242FF8E6054322782C300702782FB1
:10060300E475F0011205BD0205572000EB7F2ED2E1
:10061300008018EF540F2490D43440D4FF30040BDF
:10062300EF24BFB41A0050032461FFE544600215B0
:10063300440547E5477002054630070D782CE475FD
:10064300F0011205BDEF02059D020E8A7403D20765
:100653008003E4C207F5438B2C8A2D892EE4F544ED
:10066300F546F547E54460077F2012062E80F575B1
:1006730045FFC201C200C202C203C205C206C208CC
:100683001205FCFF700D3007057F0012063FAF47D0
:10069300AE4622B4255FC2D5C2041205FCFF24D0A6
:1006A300B40A00501A75F00A784430D50508B6FF2D
:1006B3000106C6A426F620D5047002D20380D924ED
:1006C300CFB41A00EF5004C2E5D20402092CD201C0
:1006D30080C6D20080C0D20280BCD2D580BAD205F7
:1006E30080B47F2012062E2002077401B544004017
:1006F300F11205F3FF12062E020667D208D2068016
:10070300951205F3FB1205F3FA1205F3F94A4B7040
:100713000679237A0A7BFF20022EE544602A7E00B5
:100723008E8275830012057060060EEE654570F0CB
:10073300C2D5EBC0E0EAC0E0E9C0E0EE12098CD01C
:10074300E0F9D0E0FAD0E0FB120557FF60AAEBC056
:10075300E0EAC0E0E9C0E012062ED0E02401F9D0BF
:10076300E03400FAD0E0FBE5450460DCD545D980F0
:1007730087D20280A212096F60F7E5457001041267
:1007830003B5A945600DE545600914F545120A1640
:10079300EF60F3EA30E702F404C3995077EAF425F3
:1007A300450430E701E404F545800D12096F60C18B
:1007B300EA054525451203B5EA7842F630E701E438
:1007C300254504D545042005011412098CE4C0E035
:1007D300120A167842E6601320E70714F61206168B
:1007E300802204F6D0E014C0E07F00120616E5452F
:1007F300600712060D1545800B30050312060DD058
:10080300E0020667D0E00480C512096F60A0E545E9
:10081300041203B57842EAF6E545200502600104B7
:05082300240412098C01
:1008280074FF04C0E0120A16120616E545200502F8
:10083800600312060DD0E0B545E87F451206207822
:1008480042E67F2B30E7047F2DF404C0E012062E29
:10085800D0E075F00A84C0F0120617D0E01206172F
:10086800020667791080027908C206C2088008D299
:10087800D5790A8004790AC2D5E545047002F545A0
:10088800E4FAFDFEFF1205F3FC7B082001131205B4
:10089800F3FD7B1030000A1205F3FE1205F3FF7B0F
:1008A80020EC3382D592D55013C3E43000069FFF65
:1008B800E49EFEE42001039DFDE49CFCE4CBF8C229
:1008C80001EC700CCFCECDCCE824F8F870F380178B
:1008D800C3EF33FFEE33FEED33FDEC33FCEB33FBBC
:1008E800994002FB0FD8E9EB300105F8D0E0C44885
:1008F800B201C0E00AEC4D4E4F78207B0070C2EA8E
:10090800B5450040BCC0E012098ED0F0D0E020010F
:1009180004C4C0E0C4B201C0F0120617D0F0D5F08C
:10092800EB0206671205CD070453086B5806D54C31
:1009380006D142086F4F08774408774906EA43080A
:100948007D5507AE46080C450778470A435006D937
:100958002D06DD2E07002B06E12306FE200A2C2A91
:10096800069948000006F8E545B4FF0375450612E8
:1009780005F3FC1205F3FD1205F3FE1205F3FF78EB
:100988003B0203E4790AA2D5200314300509B91003
:10099800020404B9080104A2D5200602500104206B
:1009A80002689202B544005034C0E07F2030031939
:1009B8007F30A20272067205500F1209E5C202C208
:1009C80006C205C2087F30800F300503E9C0E01277
:1009D800062E300503D0E0F9D0E0B544CC30051739
:1009E8007F30B9100C12062E7F583004077F7880AC
:1009F80003B9080312062E3002057F2D02062E7F4A
:100A0800202008F87F2B2006F322920280CF7F0057
:100A1800B407005005243BF8E6FF22286E756C6C7D
:100A28002900D2011205F33001F8C201784430D50B
:100A38000108F60206992D504349581205F324037C
:100A4800B405004001E4900A3E9312061F743A125E
:0A0A5800061FD20375440402086B68
:10036B00E9D2E7C933E833F892D5EDD2E7CD33ECD8
:07037B0033FC5002B2D52251
:10038200EC30E7100FBF000C0EBE00080DBD0004DC
:100392000BEB6014A2D5EB13FCED92E7FD2274FF88
:1003A200FCFDFEFF22E480F8A2D574FF13FC7D80E1
:0303B200E480EFF5
:1003B500F920E72824F950037907E4F42402FB180F
:1003C500DBFDE624FB5014E9600DE4F618E604F6BF
:0F03D500B40A08E4F6D9F57401F60A22C2D5225B
:1003E400ED33EC3392D5FA602AB4FF33EDC2E77BE8
:1003F400FF60067A047909E4227A04791220D5048C
:100404007A04790D224E614E002B494E46002D4947
:100414004E4600E47A08F608DAFC7B00740722E80A
:10042400C0E0ECC0E0EDC0E0EEC0E0EFC0E0EA7593
:10043400F010A4CAABF075F04DA42BFBE435F0FC2E
:10044400EA2410FAEB34C5FBEC34D9FCEDC2E7FF27
:1004540075F056A4F42411C5F0F434C58FF0A42A21
:10046400E5F03BE43CF620E714120517D0E0FFD09A
:10047400E0FED0E0FDD0E0FC1202178014F4041278
:100484000517D0E0FFD0E0FED0E0FDD0E0FC120183
:100494000ED0E0F8E6FAEDD2E7CD33EC332482FB5C
:1004A400E4C3CF33CFCE33CECD33CD33DBF37B07B1
:1004B40075F00A846004F6081B0AE5F0F6088FF06C
:1004C400740AA4FFACF08EF0740AA42CFEACF050B5
:1004D400010C8DF0740AA42CFDE435F0F608DBDE83
:0304E40074072278
:1004E7003F8000004120000042C80000447A00001D
:1004F700461C400047C35000497424004B1896809F
:100507004CBEBC205A0E1BCA6753C21C749DC5AE95
:10051700FB60065407601C2323120545EB54386023
:100527000912053112054012010EECF8EDF9EEFA49
:10053700EFCB22EB12054080F1543803241C9004C2
:10054700E7FE93FC0EEE93FD0EEE930ECE93FF2285
:100C0F00020A62E493A3F8E493A34003F68001F28F
:100C1F0008DFF48029E493A3F85407240CC8C333E6
:100C2F00C4540F4420C8834004F456800146F6DFB5
:100C3F00E4800B0102040810204080900F38E47EFE
:100C4F00019360BCA3FF543F30E509541FFEE493AA
:100C5F00A360010ECF54C025E060A840B8E493A371
:100C6F00FAE493A3F8E493A3C8C582C8CAC583CA9C
:100C7F00F0A3C8C582C8CAC583CADFE9DEE780BE54
:010F410000AF
:10055700BB010689828A83E0225002E722BBFE02A2
:09056700E32289828A83E49322D5
:10057000BB010CE58229F582E5833AF583E0225040
:1005800006E92582F8E622BBFE06E92582F8E2228A
:0D059000E58229F582E5833AF583E49322A4
:10059D00BB010689828A83F0225002F722BBFE013D
:0205AD00F32237
:0E05AF00C3E49FFFE49EFEE49DFDE49CFC225D
:1005BD00FAE6FB0808E6F925F0F618E6CA3AF6223F
:1005CD00D083D082F8E4937012740193700DA3A3BD
:1005DD0093F8740193F5828883E4737402936860D1
:0605ED00EFA3A3A380DFD1
:100E8A00EFB40A07740D120E95740A309811A899D6
:100E9A00B8130CC2983098FDA899C298B811F630C8
:070EAA0099FDC299F59922A0
:00000001FF
