:03000000020B33BD
:0C0B3300787FE4F6D8FD758147020B7A4C
:090EAC00040800000000010C1410
:100A6200D2B4D2B5C2B4D2B6C2B5D2B5D2B6C2B57C
:100A7200D2B5C2B6C2B5D2B5D2B6E4FFEFC39408BE
:100A8200748094805013C2B530B603432201D2B5AC
:100A9200E52225E0F5220F80E3AC22E41203378F32
:100AA2000B8E0A8D098C08E4FFFE7DA07C40AB0B07
:100AB200AA0AA909A80812010EE4FBFA797F784371
:100AC2001202178F0B8E0A8D098C08E4FFFEFD7C43
:100AD2003FAB0BAA0AA909A8081202B4500AE4F50E
:100AE2000BF50AF50975083FE4FFFE7D607C40AB1B
:100AF2000BAA0AA909A8081202B4600D400BE4F57A
:100B02000BF50A750960750840E4FFFEFD7CBFAB7A
:100B12000BAA0AA909A80812001DE4FBFA79C078F9
:100B2200401202178F0B8E0A8D098C08AF227E00AD
:010B320022A0
:100E7300EF24FFB39282ED24FFB39281EB24FFB3FF
:030E830092802238
:03000300020CC22A
:100CC200C0E0C0F0C083C082C0D075D000C000C0F8
:100CD20001C002C003C004C005C006C0077F027E77
:100CE20000120E5E20B202050CD007D006D005D04D
:100CF20004D003D002D001D000D0D0D082D083D093
:040D0200F0D0E0321B
:03001300020D06D5
:100D0600C0E0C0F0C083C082C0D075D000C000C0B3
:100D160001C002C003C004C005C006C0077F027E32
:100D260000120E5E20B302150CD007D006D005D0F7
:100D360004D003D002D001D000D0D0D082D083D04E
:040D4600F0D0E032D7
:100D4A00120C787B017D017F01120E737F647E0095
:100D5A00120E5EE4FBFDFF120E73D2AFD2A8D28848
:100D6A00D2AAD28A7F017E00120E5E120A62850B17
:100D7A0026850A25850924850823AF0C120BBF8016
:010D8A00E385
:100E5E00EF1FAC0670011E4C600A7D0F7C5ADCFE43
:050E6E00DDFC80EC2218
:100C23007365743A006D672F6D006375723A002522
:100C3300302E3366000E020E020E0000000000008C
:100C430000000000000000000000000000000000A1
:100C53000000000000000000000000000000000091
:100C63000000000000000000000000000000000081
:050C730000000000007C
:030EB600DFFE223A
:100E86008FA0C286C2857F0A7E00120E5ED28400C3
:030E9600C28422F1
:100E99008FA0D286C2857F0A7E00120E5ED28400A0
:030EA900C28422DE
:0C0006007F01120E867F147E00020E5E49
:100DC5008F2C8B2D8A2E892FED7006E52C248080A3
:100DD50004E52C24C0FF120E86AB2DAA2EA92F12D6
:100DE5000557FF6010120E997401252FF52FE43574
:060DF5002EF52E80E42221
:100E44008F228B23ED7006E52224808004E5222482
:0A0E5400C0FF120E86AF23020E99B4
:100E22007F40120E86E4F522C3E522940874809472
:100E320080500EE522900C3893FF120E9905228005
:020E4200E722A5
:100D8B007F01120E867F147E00120E5E7F38120ECC
:100D9B00867F147E00120E5E7F0C120E867F147EF1
:100DAB0000120E5E7F06120E867F147E00120E5E00
:0A0DBB00120E227F147E00020E5E6D
:100C7800120D8B1200067BFF7A0C7923E4FDFF121C
:100C88000DC57BFF7A0C7928E4FD7F0B120DC5E4B6
:100C9800FBFD7F0F120E447BFF7A0C792D7D01E45A
:100CA800FF120DC57BFF7A0C79287D017F0B120D91
:0A0CB800C5E4FB7D017F0F020E442E
:100BBF008F22752FFF75300C7531328526358525BF
:100BCF00348524338523327B007A00792712064F30
:100BDF007B007A0079277D017F04120DC5AC22E4DA
:100BEF00120337752FFF75300C753132E4FBFA792C
:100BFF002078411202178F358E348D338C327B0063
:100C0F007A00792712064F7B007A007927E4FD7F5F
:040C1F0004020DC5F9
:100016000203A0E86480F8E933E83360110460F075
:10002600ED33EC337009E8FCE9FDEAFEEBFF220450
:1000360060DED3EB9FEA9EE99DE8C2E78CF0C2F74B
:1000460095F0400CE8CCF8E9CDF9EACEFAEBCFFB17
:1000560012036B85D0F05804700320D5B3E8047002
:10006600075002B2D50203AA92D5EC0460F7E4CC9D
:10007600C0E0C398F8603B94186008400DD0E0FBE0
:10008600020382E4FBFAC9FC8028E830E406E4C9EE
:10009600FBE4CAFCE830E305E4C9CACBFCE8540734
:1000A6006010F8C3E913F9EA13FAEB13FBEC13FC3F
:1000B600D8F130F52FC3E49CFCEF9BFFEE9AFEEDE2
:1000C60099FDD0E0FBEF4E4D4C701222DB0302038C
:1000D600A7EC2CFCEF33FFEE33FEED33FDED30E7FE
:1000E600EB020382EF2BFFEE3AFEED39FDD0E0FB8B
:1000F60050130BBB00030203AAED13FDEE13FEEF34
:0801060013FFEC13FC0203825D
:10010E00EC4D6011E8497017ED33EC3304600DE4EB
:10011E00FCFFFEFD22E933E8330470F80203A0125F
:10012E00036B58046009E4CC248150062850090260
:10013E0003AA2840030203A7C0E0EB4A7044B9802B
:10014E0006D0E0FB020396EF4E701CBD8008EBFF5D
:10015E00EAFEE9FD80EBE98DF0A4FEE5F00201F781
:10016E00E9CDF9EAFEEBFFEF89F0A4FCE5F0CE89CC
:10017E00F0A42EFFE435F0CD89F0A42DFEE435F089
:10018E008067EF4E7005BD80D780C3EF8BF0A4ACB7
:10019E00F0EE8BF0A42CFCE435F0F8EF8AF0A42CF2
:1001AE00E5F038FCE433CB8DF0A42CFCE5F03BF805
:1001BE00EE8AF0A42CFCE5F038F8E433CF89F0A4F5
:1001CE002CFCE5F038CF3400CE89F0A42FFFE5F0FB
:1001DE003EFEE433C98DF0A42EFEE5F039CD8AF053
:1001EE00A42FFFE5F03EFEE43DFD33D0E0FB5007CB
:1001FE000BBB000F0203AAEC2CFCEF33FFEE33FE19
:06020E00ED33FD02038246
:100214000203AAEC5D046005E8590470030203A01C
:1002240012036B580460F6EC4860F2EC7004FDFEB7
:10023400FF22C860DB2481C85009C39860025006BD
:100244000203A79850CAF582E9294B4A7005AB828C
:1002540002039675F0007C1A7880C3EF9BEE9AED4A
:1002640099400DC3EF9BFFEE9AFEED99FDE842F035
:10027400DC23ACF0D0E0FFD0E0FED0E0FDAB822088
:10028400E7101BEB60BAEC2CFCEF33FFEE33FEED12
:1002940033FD020382E803F830E705C0F075F0008F
:1002A400EF2FFFEE33FEED33FD40B830E7C280AAF6
:1002B40074F8CC6480CCC86480C8F58204604FC3F1
:1002C400EB9FF5F0EA9E42F0E99D42F0E89C45F090
:1002D400603C501DE5825FFFE582D313CB5BCBF41A
:1002E4002B5582FB50280ABA002409B90020088043
:1002F4001DE5825BFBE582D313CF5FCFF4C3132FDD
:100304005582FF50090EBE00050DBD00010CC3EB64
:100314009FF5F0EA9E42F0E99D42F0E89C45F060CA
:0903240007CC4820E701B3EC22EC
:10032D0075F020800E75F010800575F0087D007E4B
:10033D00007F003392D530D5031205AFEC3340105A
:10034D00EF33FFEE33FEED33FDEC33FCD5F0ED2254
:0E035D00E5F0247EA2D513CC92E7CDCEFF2290
:1005F300E543242FF8E6054322782C300702782FB1
:10060300E475F0011205BD0205572000EB7F2ED2E1
:10061300008018EF540F2490D43440D4FF30040BDF
:10062300EF24BFB41A0050032461FFE544600215B0
:10063300440547E5477002054630070D782CE475FD
:10064300F0011205BDEF02059D020DFB7403D207F5
:100653008003E4C207F5438B2C8A2D892EE4F544ED
:10066300F546F547E54460077F2012062E80F575B1
:1006730045FFC201C200C202C203C205C206C208CC
:100683001205FCFF700D3007057F0012063FAF47D0
:10069300AE4622B4255FC2D5C2041205FCFF24D0A6
:1006A300B40A00501A75F00A784430D50508B6FF2D
:1006B3000106C6A426F620D5047002D20380D924ED
:1006C300CFB41A00EF5004C2E5D20402092CD201C0
:1006D30080C6D20080C0D20280BCD2D580BAD205F7
:1006E30080B47F2012062E2002077401B544004017
:1006F300F11205F3FF12062E020667D208D2068016
:10070300951205F3FB1205F3FA1205F3F94A4B7040
:100713000679237A0A7BFF20022EE544602A7E00B5
:100723008E8275830012057060060EEE654570F0CB
:10073300C2D5EBC0E0EAC0E0E9C0E0EE12098CD01C
:10074300E0F9D0E0FAD0E0FB120557FF60AAEBC056
:10075300E0EAC0E0E9C0E012062ED0E02401F9D0BF
:10076300E03400FAD0E0FBE5450460DCD545D980F0
:1007730087D20280A212096F60F7E5457001041267
:1007830003B5A945600DE545600914F545120A1640
:10079300EF60F3EA30E702F404C3995077EAF425F3
:1007A300450430E701E404F545800D12096F60C18B
:1007B300EA054525451203B5EA7842F630E701E438
:1007C300254504D545042005011412098CE4C0E035
:1007D300120A167842E6601320E70714F61206168B
:1007E300802204F6D0E014C0E07F00120616E5452F
:1007F300600712060D1545800B30050312060DD058
:10080300E0020667D0E00480C512096F60A0E545E9
:10081300041203B57842EAF6E545200502600104B7
:05082300240412098C01
:1008280074FF04C0E0120A16120616E545200502F8
:10083800600312060DD0E0B545E87F451206207822
:1008480042E67F2B30E7047F2DF404C0E012062E29
:10085800D0E075F00A84C0F0120617D0E01206172F
:10086800020667791080027908C206C2088008D299
:10087800D5790A8004790AC2D5E545047002F545A0
:10088800E4FAFDFEFF1205F3FC7B082001131205B4
:10089800F3FD7B1030000A1205F3FE1205F3FF7B0F
:1008A80020EC3382D592D55013C3E43000069FFF65
:1008B800E49EFEE42001039DFDE49CFCE4CBF8C229
:1008C80001EC700CCFCECDCCE824F8F870F380178B
:1008D800C3EF33FFEE33FEED33FDEC33FCEB33FBBC
:1008E800994002FB0FD8E9EB300105F8D0E0C44885
:1008F800B201C0E00AEC4D4E4F78207B0070C2EA8E
:10090800B5450040BCC0E012098ED0F0D0E020010F
:1009180004C4C0E0C4B201C0F0120617D0F0D5F08C
:10092800EB0206671205CD070453086B5806D54C31
:1009380006D142086F4F08774408774906EA43080A
:100948007D5507AE46080C450778470A435006D937
:100958002D06DD2E07002B06E12306FE200A2C2A91
:10096800069948000006F8E545B4FF0375450612E8
:1009780005F3FC1205F3FD1205F3FE1205F3FF78EB
:100988003B0203E4790AA2D5200314300509B91003
:10099800020404B9080104A2D5200602500104206B
:1009A80002689202B544005034C0E07F2030031939
:1009B8007F30A20272067205500F1209E5C202C208
:1009C80006C205C2087F30800F300503E9C0E01277
:1009D800062E300503D0E0F9D0E0B544CC30051739
:1009E8007F30B9100C12062E7F583004077F7880AC
:1009F80003B9080312062E3002057F2D02062E7F4A
:100A0800202008F87F2B2006F322920280CF7F0057
:100A1800B407005005243BF8E6FF22286E756C6C7D
:100A28002900D2011205F33001F8C201784430D50B
:100A38000108F60206992D504349581205F324037C
:100A4800B405004001E4900A3E9312061F743A125E
:0A0A5800061FD20375440402086B68
:10036B00E9D2E7C933E833F892D5EDD2E7CD33ECD8
:07037B0033FC5002B2D52251
:10038200EC30E7100FBF000C0EBE00080DBD0004DC
:100392000BEB6014A2D5EB13FCED92E7FD2274FF88
:1003A200FCFDFEFF22E480F8A2D574FF13FC7D80E1
:0303B200E480EFF5
:1003B500F920E72824F950037907E4F42402FB180F
:1003C500DBFDE624FB5014E9600DE4F618E604F6BF
:0F03D500B40A08E4F6D9F57401F60A22C2D5225B
:1003E400ED33EC3392D5FA602AB4FF33EDC2E77BE8
:1003F400FF60067A047909E4227A04791220D5048C
:100404007A04790D224E614E002B494E46002D4947
:100414004E4600E47A08F608DAFC7B00740722E80A
:10042400C0E0ECC0E0EDC0E0EEC0E0EFC0E0EA7593
:10043400F010A4CAABF075F04DA42BFBE435F0FC2E
:10044400EA2410FAEB34C5FBEC34D9FCEDC2E7FF27
:1004540075F056A4F42411C5F0F434C58FF0A42A21
:10046400E5F03BE43CF620E714120517D0E0FFD09A
:10047400E0FED0E0FDD0E0FC1202178014F4041278
:100484000517D0E0FFD0E0FED0E0FDD0E0FC120183
:100494000ED0E0F8E6FAEDD2E7CD33EC332482FB5C
:1004A400E4C3CF33CFCE33CECD33CD33DBF37B07B1
:1004B40075F00A846004F6081B0AE5F0F6088FF06C
:1004C400740AA4FFACF08EF0740AA42CFEACF050B5
:1004D400010C8DF0740AA42CFDE435F0F608DBDE83
:0304E40074072278
:1004E7003F8000004120000042C80000447A00001D
:1004F700461C400047C35000497424004B1896809F
:100507004CBEBC205A0E1BCA6753C21C749DC5AE95
:10051700FB60065407601C2323120545EB54386023
:100527000912053112054012010EECF8EDF9EEFA49
:10053700EFCB22EB12054080F1543803241C9004C2
:10054700E7FE93FC0EEE93FD0EEE930ECE93FF2285
:100B3F00020D4AE493A3F8E493A34003F68001F275
:100B4F0008DFF48029E493A3F85407240CC8C333B7
:100B5F00C4540F4420C8834004F456800146F6DF86
:100B6F00E4800B0102040810204080900EACE47E5C
:100B7F00019360BCA3FF543F30E509541FFEE4937B
:100B8F00A360010ECF54C025E060A840B8E493A342
:100B9F00FAE493A3F8E493A3C8C582C8CAC583CA6D
:100BAF00F0A3C8C582C8CAC583CADFE9DEE780BE25
:010EB500003C
:10055700BB010689828A83E0225002E722BBFE02A2
:09056700E32289828A83E49322D5
:10057000BB010CE58229F582E5833AF583E0225040
:1005800006E92582F8E622BBFE06E92582F8E2228A
:0D059000E58229F582E5833AF583E49322A4
:10059D00BB010689828A83F0225002F722BBFE013D
:0205AD00F32237
:0E05AF00C3E49FFFE49EFEE49DFDE49CFC225D
:1005BD00FAE6FB0808E6F925F0F618E6CA3AF6223F
:1005CD00D083D082F8E4937012740193700DA3A3BD
:1005DD0093F8740193F5828883E4737402936860D1
:0605ED00EFA3A3A380DFD1
:100DFB00EFB40A07740D120E06740A309811A899F5
:100E0B00B8130CC2983098FDA899C298B811F63057
:070E1B0099FDC299F599222F
:00000001FF
