:03000000020B20D0
:0C0B2000787FE4F6D8FD758142020B6777
:060E0A00040800000000D6
:100A4F00D2B4D2B5C2B4D2B6C2B5D2B5D2B6C2B58F
:100A5F00D2B5C2B6C2B5D2B5D2B6E4FFEFC39408D1
:100A6F00748094805013C2B530B603432201D2B5BF
:100A7F00E52225E0F5220F80E3AC22E41203248F58
:100A8F000B8E0A8D098C08E4FFFE7DA07C40AB0B1A
:100A9F00AA0AA909A8081200FBE4FBFA797F784398
:100AAF001202048F0B8E0A8D098C08E4FFFEFD7C69
:100ABF003FAB0BAA0AA909A8081202A1500AE4F534
:100ACF000BF50AF50975083FE4FFFE7D607C40AB2E
:100ADF000BAA0AA909A8081202A1600D400BE4F5A0
:100AEF000BF50A750960750840E4FFFEFD7CBFAB8E
:100AFF000BAA0AA909A80812000AE4FBFA79C07820
:100B0F00401202048F0B8E0A8D098C08AF227E00D3
:010B1F0022B3
:100DC500EF24FFB39282ED24FFB39281EB24FFB3AE
:030DD500928022E7
:100C4B00120C017B017D017F01120DC57F647E00BB
:100C5B00120DB0E4FBFDFF120DC57F147E00120DCB
:100C6B00B0120A4FAF0BAE0AAD09AC08120D017FE3
:100C7B00147E00120DB0120A4FAF0BAE0AAD09ACC9
:060C8B0008120D0180E9D2
:100DB000EF1FAC0670011E4C600A7D0F7C5ADCFEF2
:050DC000DDFC80EC22C7
:100BAC007365743A006D672F6D006375723A00259A
:100BBC00302E3366000E020E020E00000000000004
:100BCC000000000000000000000000000000000019
:100BDC000000000000000000000000000000000009
:100BEC0000000000000000000000000000000000F9
:050BFC000000000000F4
:030E2500DFFE22CB
:100DD8008FA0C286C2857F0A7E00120DB0D2840021
:030DE800C28422A0
:100DEB008FA0D286C2857F0A7E00120DB0D28400FE
:030DFB00C284228D
:0C0DFE007F01120DD87F147E00020DB0A2
:100CCB008F278B288A29892AED7006E527248080B7
:100CDB0004E52724C0FF120DD8AB28AA29A92A1294
:100CEB000544FF6010120DEB7401252AF52AE4353B
:060CFB0029F52980E42226
:100D96008F228B23ED7006E52224808004E5222431
:0A0DA600C0FF120DD8AF23020DEBC1
:100D74007F40120DD8E4F522C3E5229408748094D0
:100D840080500EE522900BC193FF120DEB052280DB
:020D9400E72254
:100C91007F01120DD87F147E00120DB07F38120D26
:100CA100D87F147E00120DB07F0C120DD87F147EF8
:100CB10000120DB07F06120DD87F147E00120DB008
:0A0CC100120D747F147E00020DB0C6
:100C0100120C91120DFE7BFF7A0B79ACE4FDFF1201
:100C11000CCB7BFF7A0B79B1E4FD7F0B120CCBE49B
:100C2100FBFD7F0F120D967BFF7A0B79B67D01E4F8
:100C3100FF120CCB7BFF7A0B79B17D017F0B120C7C
:0A0C4100CBE4FB7D017F0F020D964E
:100D0100752AFF752B0B752CBB8F308E2F8D2E8C7A
:100D11002D7B007A00792212063C7B007A00792231
:070D21007D017F06020CCBEF
:040E1000020C0014BC
:0B0E1500EF250DF50DEE350CF50C225D
:050E2000AE0CAF0D2235
:100D4F0030B021750EC8AF0E150EEF601730B1071A
:100D5F007F017E00120E1530B20774FFFFFE120ED8
:050D6F001530B0E22286
:1000030002038DE86480F8E933E83360110460F09B
:10001300ED33EC337009E8FCE9FDEAFEEBFF220463
:1000230060DED3EB9FEA9EE99DE8C2E78CF0C2F75E
:1000330095F0400CE8CCF8E9CDF9EACEFAEBCFFB2A
:1000430012035885D0F05804700320D5B3E8047028
:10005300075002B2D502039792D5EC0460F7E4CCC3
:10006300C0E0C398F8603B94186008400DD0E0FBF3
:1000730002036FE4FBFAC9FC8028E830E406E4C914
:10008300FBE4CAFCE830E305E4C9CACBFCE8540747
:100093006010F8C3E913F9EA13FAEB13FBEC13FC52
:1000A300D8F130F52FC3E49CFCEF9BFFEE9AFEEDF5
:1000B30099FDD0E0FBEF4E4D4C701222DB0302039F
:1000C30094EC2CFCEF33FFEE33FEED33FDED30E724
:1000D300EB02036FEF2BFFEE3AFEED39FDD0E0FBB1
:1000E30050130BBB0003020397ED13FDEE13FEEF5A
:0800F30013FFEC13FC02036F84
:1000FB00EC4D6011E8497017ED33EC3304600DE4FF
:10010B00FCFFFEFD22E933E8330470F802038D1285
:10011B00035858046009E4CC248150062850090286
:10012B000397284003020394C0E0EB4A7044B98064
:10013B0006D0E0FB020383EF4E701CBD8008EBFF83
:10014B00EAFEE9FD80EBE98DF0A4FEE5F00201E4A7
:10015B00E9CDF9EAFEEBFFEF89F0A4FCE5F0CE89DF
:10016B00F0A42EFFE435F0CD89F0A42DFEE435F09C
:10017B008067EF4E7005BD80D780C3EF8BF0A4ACCA
:10018B00F0EE8BF0A42CFCE435F0F8EF8AF0A42C05
:10019B00E5F038FCE433CB8DF0A42CFCE5F03BF818
:1001AB00EE8AF0A42CFCE5F038F8E433CF89F0A408
:1001BB002CFCE5F038CF3400CE89F0A42FFFE5F00E
:1001CB003EFEE433C98DF0A42EFEE5F039CD8AF066
:1001DB00A42FFFE5F03EFEE43DFD33D0E0FB5007DE
:1001EB000BBB000F020397EC2CFCEF33FFEE33FE3F
:0601FB00ED33FD02036F6D
:10020100020397EC5D046005E85904700302038D55
:10021100120358580460F6EC4860F2EC7004FDFEDD
:10022100FF22C860DB2481C85009C39860025006D0
:100231000203949850CAF582E9294B4A7005AB82B2
:1002410002038375F0007C1A7880C3EF9BEE9AED70
:1002510099400DC3EF9BFFEE9AFEED99FDE842F048
:10026100DC23ACF0D0E0FFD0E0FED0E0FDAB82209B
:10027100E7101BEB60BAEC2CFCEF33FFEE33FEED25
:1002810033FD02036FE803F830E705C0F075F000B5
:10029100EF2FFFEE33FEED33FD40B830E7C280AA09
:1002A10074F8CC6480CCC86480C8F58204604FC304
:1002B100EB9FF5F0EA9E42F0E99D42F0E89C45F0A3
:1002C100603C501DE5825FFFE582D313CB5BCBF42D
:1002D1002B5582FB50280ABA002409B90020088056
:1002E1001DE5825BFBE582D313CF5FCFF4C3132FF0
:1002F1005582FF50090EBE00050DBD00010CC3EB78
:100301009FF5F0EA9E42F0E99D42F0E89C45F060DD
:0903110007CC4820E701B3EC22FF
:10031A0075F020800E75F010800575F0087D007E5E
:10032A00007F003392D530D50312059CEC33401080
:10033A00EF33FFEE33FEED33FDEC33FCD5F0ED2267
:0E034A00E5F0247EA2D513CC92E7CDCEFF22A3
:1005E000E53E242AF8E6053E227827300702782ADD
:1005F000E475F0011205AA0205442000EB7F2ED21B
:10060000008018EF540F2490D43440D4FF30040BF2
:10061000EF24BFB41A0050032461FFE53F600215C8
:100620003F0542E5427002054130070D7827E47529
:10063000F0011205AAEF02058A020D287403D20701
:100640008003E4C207F53E8B278A288929E4F53F19
:10065000F541F542E53F60077F2012061B80F575E6
:1006600040FFC201C200C202C203C205C206C208E4
:100670001205E9FF700D3007057F0012062CAF420E
:10068000AE4122B4255FC2D5C2041205E9FF24D0D1
:10069000B40A00501A75F00A783F30D50508B6FF45
:1006A0000106C6A426F620D5047002D20380D92400
:1006B000CFB41A00EF5004C2E5D204020919D201E6
:1006C00080C6D20080C0D20280BCD2D580BAD2050A
:1006D00080B47F2012061B2002077401B53F004042
:1006E000F11205E0FF12061B020654D208D2068062
:1006F000951205E0FB1205E0FA1205E0F94A4B708D
:100700000679107A0A7BFF20022EE53F602A7E00E0
:100710008E8275830012055D60060EEE654070F0F6
:10072000C2D5EBC0E0EAC0E0E9C0E0EE120979D042
:10073000E0F9D0E0FAD0E0FB120544FF60AAEBC07C
:10074000E0EAC0E0E9C0E012061BD0E02401F9D0E5
:10075000E03400FAD0E0FBE5400460DCD540D9800D
:1007600087D20280A212095C60F7E5407001041292
:1007700003A2A940600DE540600914F540120A0388
:10078000EF60F3EA30E702F404C3995077EAF42506
:10079000400430E701E404F540800D12095C60C1BB
:1007A000EA054025401203A2EA783DF630E701E46D
:1007B000254004D5400420050114120979E4C0E065
:1007C000120A03783DE6601320E70714F6120603C9
:1007D000802204F6D0E014C0E07F00120603E5405A
:1007E00060071205FA1540800B3005031205FAD098
:1007F000E0020654D0E00480C512095C60A0E54028
:10080000041203A2783DEAF6E540200502600104E7
:05081000240412097927
:1008150074FF04C0E0120A03120603E54020050236
:1008250060031205FAD0E0B540E87F4512060D7861
:100835003DE67F2B30E7047F2DF404C0E012061B54
:10084500D0E075F00A84C0F0120604D0E012060468
:10085500020654791080027908C206C2088008D2BF
:10086500D5790A8004790AC2D5E540047002F540BD
:10087500E4FAFDFEFF1205E0FC7B082001131205DA
:10088500E0FD7B1030000A1205E0FE1205E0FF7B5B
:1008950020EC3382D592D55013C3E43000069FFF78
:1008A500E49EFEE42001039DFDE49CFCE4CBF8C23C
:1008B50001EC700CCFCECDCCE824F8F870F380179E
:1008C500C3EF33FFEE33FEED33FDEC33FCEB33FBCF
:1008D500994002FB0FD8E9EB300105F8D0E0C44898
:1008E500B201C0E00AEC4D4E4F78207B0070C2EAA1
:1008F500B5400040BCC0E012097BD0F0D0E020013B
:1009050004C4C0E0C4B201C0F0120604D0F0D5F0B2
:10091500EB0206541205BA06F15308585806C24CA4
:1009250006BE42085C4F08644408644906D743087C
:100935006A55079B4607F9450765470A305006C6BD
:100945002D06CA2E06ED2B06CE2306EB200A192A04
:10095500068648000006E5E540B4FF03754006122B
:1009650005E0FC1205E0FD1205E0FE1205E0FF784A
:10097500360203D1790AA2D5200314300509B9102E
:10098500020404B9080104A2D5200602500104207E
:1009950002689202B53F005034C0E07F2030031951
:1009A5007F30A20272067205500F1209D2C202C22E
:1009B50006C205C2087F30800F300503E9C0E0128A
:1009C500061B300503D0E0F9D0E0B53FCC30051764
:1009D5007F30B9100C12061B7F583004077F7880D2
:1009E50003B9080312061B3002057F2D02061B7F83
:1009F500202008F87F2B2006F322920280CF7F006B
:100A0500B4070050052436F8E6FF22286E756C6C95
:100A15002900D2011205E03001F8C201783F30D536
:100A25000108F60206862D504349581205E02403B5
:100A3500B405004001E4900A2B9312060C743A1297
:0A0A4500060CD203753F04020858A6
:10035800E9D2E7C933E833F892D5EDD2E7CD33ECEB
:0703680033FC5002B2D52264
:10036F00EC30E7100FBF000C0EBE00080DBD0004EF
:10037F000BEB6014A2D5EB13FCED92E7FD2274FF9B
:10038F00FCFDFEFF22E480F8A2D574FF13FC7D80F4
:03039F00E480EF08
:1003A200F920E72824F950037907E4F42402FB1822
:1003B200DBFDE624FB5014E9600DE4F618E604F6D2
:0F03C200B40A08E4F6D9F57401F60A22C2D5226E
:1003D100ED33EC3392D5FA602AB4FF33EDC2E77BFB
:1003E100FF60067A0379F6E4227A0379FF20D504C7
:1003F1007A0379FA224E614E002B494E46002D496F
:100401004E4600E47A08F608DAFC7B00740722E81D
:10041100C0E0ECC0E0EDC0E0EEC0E0EFC0E0EA75A6
:10042100F010A4CAABF075F04DA42BFBE435F0FC41
:10043100EA2410FAEB34C5FBEC34D9FCEDC2E7FF3A
:1004410075F056A4F42411C5F0F434C58FF0A42A34
:10045100E5F03BE43CF620E714120504D0E0FFD0C0
:10046100E0FED0E0FDD0E0FC1202048014F404129E
:100471000504D0E0FFD0E0FED0E0FDD0E0FC1200AA
:10048100FBD0E0F8E6FAEDD2E7CD33EC332482FB82
:10049100E4C3CF33CFCE33CECD33CD33DBF37B07C4
:1004A10075F00A846004F6081B0AE5F0F6088FF07F
:1004B100740AA4FFACF08EF0740AA42CFEACF050C8
:1004C100010C8DF0740AA42CFDE435F0F608DBDE96
:0304D1007407228B
:1004D4003F8000004120000042C80000447A000030
:1004E400461C400047C35000497424004B189680B2
:1004F4004CBEBC205A0E1BCA6753C21C749DC5AEA9
:10050400FB60065407601C2323120532EB54386049
:100514000912051E12052D1200FBECF8EDF9EEFA96
:10052400EFCB22EB12052D80F1543803241C9004E8
:10053400D4FE93FC0EEE93FD0EEE930ECE93FF22AB
:100B2C00020C4BE493A3F8E493A34003F68001F288
:100B3C0008DFF48029E493A3F85407240CC8C333CA
:100B4C00C4540F4420C8834004F456800146F6DF99
:100B5C00E4800B0102040810204080900E0AE47E11
:100B6C00019360BCA3FF543F30E509541FFEE4938E
:100B7C00A360010ECF54C025E060A840B8E493A355
:100B8C00FAE493A3F8E493A3C8C582C8CAC583CA80
:100B9C00F0A3C8C582C8CAC583CADFE9DEE780BE38
:010E140000DD
:10054400BB010689828A83E0225002E722BBFE02B5
:09055400E32289828A83E49322E8
:10055D00BB010CE58229F582E5833AF583E0225053
:10056D0006E92582F8E622BBFE06E92582F8E2229D
:0D057D00E58229F582E5833AF583E49322B7
:10058A00BB010689828A83F0225002F722BBFE0150
:02059A00F3224A
:0E059C00C3E49FFFE49EFEE49DFDE49CFC2270
:1005AA00FAE6FB0808E6F925F0F618E6CA3AF62252
:1005BA00D083D082F8E4937012740193700DA3A3D0
:1005CA0093F8740193F5828883E4737402936860E4
:0605DA00EFA3A3A380DFE4
:100D2800EFB40A07740D120D33740A309811A8999C
:100D3800B8130CC2983098FDA899C298B811F6302B
:070D480099FDC299F5992203
:00000001FF
